{
  "_format": "hh-sol-artifact-1",
  "contractName": "MyEpicNFT",
  "sourceName": "contracts/MyEpicNFT.sol",
  "abi": [
    {
      "inputs": [],
      "stateMutability": "nonpayable",
      "type": "constructor"
    },
    {
      "anonymous": false,
      "inputs": [
        {
          "indexed": true,
          "internalType": "address",
          "name": "owner",
          "type": "address"
        },
        {
          "indexed": true,
          "internalType": "address",
          "name": "approved",
          "type": "address"
        },
        {
          "indexed": true,
          "internalType": "uint256",
          "name": "tokenId",
          "type": "uint256"
        }
      ],
      "name": "Approval",
      "type": "event"
    },
    {
      "anonymous": false,
      "inputs": [
        {
          "indexed": true,
          "internalType": "address",
          "name": "owner",
          "type": "address"
        },
        {
          "indexed": true,
          "internalType": "address",
          "name": "operator",
          "type": "address"
        },
        {
          "indexed": false,
          "internalType": "bool",
          "name": "approved",
          "type": "bool"
        }
      ],
      "name": "ApprovalForAll",
      "type": "event"
    },
    {
      "anonymous": false,
      "inputs": [
        {
          "indexed": false,
          "internalType": "address",
          "name": "sender",
          "type": "address"
        },
        {
          "indexed": false,
          "internalType": "uint256",
          "name": "tokenId",
          "type": "uint256"
        }
      ],
      "name": "NewEpicNFTMinted",
      "type": "event"
    },
    {
      "anonymous": false,
      "inputs": [
        {
          "indexed": true,
          "internalType": "address",
          "name": "from",
          "type": "address"
        },
        {
          "indexed": true,
          "internalType": "address",
          "name": "to",
          "type": "address"
        },
        {
          "indexed": true,
          "internalType": "uint256",
          "name": "tokenId",
          "type": "uint256"
        }
      ],
      "name": "Transfer",
      "type": "event"
    },
    {
      "inputs": [
        {
          "internalType": "address",
          "name": "to",
          "type": "address"
        },
        {
          "internalType": "uint256",
          "name": "tokenId",
          "type": "uint256"
        }
      ],
      "name": "approve",
      "outputs": [],
      "stateMutability": "nonpayable",
      "type": "function"
    },
    {
      "inputs": [
        {
          "internalType": "address",
          "name": "owner",
          "type": "address"
        }
      ],
      "name": "balanceOf",
      "outputs": [
        {
          "internalType": "uint256",
          "name": "",
          "type": "uint256"
        }
      ],
      "stateMutability": "view",
      "type": "function"
    },
    {
      "inputs": [
        {
          "internalType": "uint256",
          "name": "tokenId",
          "type": "uint256"
        }
      ],
      "name": "getApproved",
      "outputs": [
        {
          "internalType": "address",
          "name": "",
          "type": "address"
        }
      ],
      "stateMutability": "view",
      "type": "function"
    },
    {
      "inputs": [
        {
          "internalType": "address",
          "name": "owner",
          "type": "address"
        },
        {
          "internalType": "address",
          "name": "operator",
          "type": "address"
        }
      ],
      "name": "isApprovedForAll",
      "outputs": [
        {
          "internalType": "bool",
          "name": "",
          "type": "bool"
        }
      ],
      "stateMutability": "view",
      "type": "function"
    },
    {
      "inputs": [
        {
          "internalType": "string",
          "name": "metaData",
          "type": "string"
        }
      ],
      "name": "makeAnEpicNFT",
      "outputs": [],
      "stateMutability": "nonpayable",
      "type": "function"
    },
    {
      "inputs": [],
      "name": "name",
      "outputs": [
        {
          "internalType": "string",
          "name": "",
          "type": "string"
        }
      ],
      "stateMutability": "view",
      "type": "function"
    },
    {
      "inputs": [
        {
          "internalType": "uint256",
          "name": "tokenId",
          "type": "uint256"
        }
      ],
      "name": "ownerOf",
      "outputs": [
        {
          "internalType": "address",
          "name": "",
          "type": "address"
        }
      ],
      "stateMutability": "view",
      "type": "function"
    },
    {
      "inputs": [
        {
          "internalType": "address",
          "name": "from",
          "type": "address"
        },
        {
          "internalType": "address",
          "name": "to",
          "type": "address"
        },
        {
          "internalType": "uint256",
          "name": "tokenId",
          "type": "uint256"
        }
      ],
      "name": "safeTransferFrom",
      "outputs": [],
      "stateMutability": "nonpayable",
      "type": "function"
    },
    {
      "inputs": [
        {
          "internalType": "address",
          "name": "from",
          "type": "address"
        },
        {
          "internalType": "address",
          "name": "to",
          "type": "address"
        },
        {
          "internalType": "uint256",
          "name": "tokenId",
          "type": "uint256"
        },
        {
          "internalType": "bytes",
          "name": "_data",
          "type": "bytes"
        }
      ],
      "name": "safeTransferFrom",
      "outputs": [],
      "stateMutability": "nonpayable",
      "type": "function"
    },
    {
      "inputs": [
        {
          "internalType": "address",
          "name": "operator",
          "type": "address"
        },
        {
          "internalType": "bool",
          "name": "approved",
          "type": "bool"
        }
      ],
      "name": "setApprovalForAll",
      "outputs": [],
      "stateMutability": "nonpayable",
      "type": "function"
    },
    {
      "inputs": [
        {
          "internalType": "bytes4",
          "name": "interfaceId",
          "type": "bytes4"
        }
      ],
      "name": "supportsInterface",
      "outputs": [
        {
          "internalType": "bool",
          "name": "",
          "type": "bool"
        }
      ],
      "stateMutability": "view",
      "type": "function"
    },
    {
      "inputs": [],
      "name": "symbol",
      "outputs": [
        {
          "internalType": "string",
          "name": "",
          "type": "string"
        }
      ],
      "stateMutability": "view",
      "type": "function"
    },
    {
      "inputs": [
        {
          "internalType": "uint256",
          "name": "tokenId",
          "type": "uint256"
        }
      ],
      "name": "tokenURI",
      "outputs": [
        {
          "internalType": "string",
          "name": "",
          "type": "string"
        }
      ],
      "stateMutability": "view",
      "type": "function"
    },
    {
      "inputs": [
        {
          "internalType": "address",
          "name": "from",
          "type": "address"
        },
        {
          "internalType": "address",
          "name": "to",
          "type": "address"
        },
        {
          "internalType": "uint256",
          "name": "tokenId",
          "type": "uint256"
        }
      ],
      "name": "transferFrom",
      "outputs": [],
      "stateMutability": "nonpayable",
      "type": "function"
    }
  ],
  "bytecode": "0x60806040523480156200001157600080fd5b506040518060400160405280600981526020017f74657374546f6b656e00000000000000000000000000000000000000000000008152506040518060400160405280600381526020017f54544b0000000000000000000000000000000000000000000000000000000000815250816000908051906020019062000096929190620001cf565b508060019080519060200190620000af929190620001cf565b505050620000fd6040518060400160405280601781526020017f536d61727420436f6e7472616374204465706c6f7965640000000000000000008152506200010360201b62000bd71760201c565b620003ac565b620001a3816040516024016200011a9190620002c0565b6040516020818303038152906040527f41304fac000000000000000000000000000000000000000000000000000000007bffffffffffffffffffffffffffffffffffffffffffffffffffffffff19166020820180517bffffffffffffffffffffffffffffffffffffffffffffffffffffffff8381831617835250505050620001a660201b60201c565b50565b60008151905060006a636f6e736f6c652e6c6f679050602083016000808483855afa5050505050565b828054620001dd9062000336565b90600052602060002090601f0160209004810192826200020157600085556200024d565b82601f106200021c57805160ff19168380011785556200024d565b828001600101855582156200024d579182015b828111156200024c5782518255916020019190600101906200022f565b5b5090506200025c919062000260565b5090565b5b808211156200027b57600081600090555060010162000261565b5090565b60006200028c82620002e4565b620002988185620002ef565b9350620002aa81856020860162000300565b620002b5816200039b565b840191505092915050565b60006020820190508181036000830152620002dc81846200027f565b905092915050565b600081519050919050565b600082825260208201905092915050565b60005b838110156200032057808201518184015260208101905062000303565b8381111562000330576000848401525b50505050565b600060028204905060018216806200034f57607f821691505b602082108114156200036657620003656200036c565b5b50919050565b7f4e487b7100000000000000000000000000000000000000000000000000000000600052602260045260246000fd5b6000601f19601f8301169050919050565b612f0680620003bc6000396000f3fe608060405234801561001057600080fd5b50600436106100ea5760003560e01c80636352211e1161008c578063a22cb46511610066578063a22cb4651461025b578063b88d4fde14610277578063c87b56dd14610293578063e985e9c5146102c3576100ea565b80636352211e146101dd57806370a082311461020d57806395d89b411461023d576100ea565b8063095ea7b3116100c8578063095ea7b31461016d57806323b872dd1461018957806339fa8daf146101a557806342842e0e146101c1576100ea565b806301ffc9a7146100ef57806306fdde031461011f578063081812fc1461013d575b600080fd5b61010960048036038101906101049190611ddb565b6102f3565b60405161011691906122f8565b60405180910390f35b6101276103d5565b6040516101349190612313565b60405180910390f35b61015760048036038101906101529190611e6e565b610467565b6040516101649190612268565b60405180910390f35b61018760048036038101906101829190611d9f565b6104ec565b005b6101a3600480360381019061019e9190611c99565b610604565b005b6101bf60048036038101906101ba9190611e2d565b610664565b005b6101db60048036038101906101d69190611c99565b61075d565b005b6101f760048036038101906101f29190611e6e565b61077d565b6040516102049190612268565b60405180910390f35b61022760048036038101906102229190611c34565b61082f565b6040516102349190612555565b60405180910390f35b6102456108e7565b6040516102529190612313565b60405180910390f35b61027560048036038101906102709190611d63565b610979565b005b610291600480360381019061028c9190611ce8565b61098f565b005b6102ad60048036038101906102a89190611e6e565b6109f1565b6040516102ba9190612313565b60405180910390f35b6102dd60048036038101906102d89190611c5d565b610b43565b6040516102ea91906122f8565b60405180910390f35b60007f80ac58cd000000000000000000000000000000000000000000000000000000007bffffffffffffffffffffffffffffffffffffffffffffffffffffffff1916827bffffffffffffffffffffffffffffffffffffffffffffffffffffffff191614806103be57507f5b5e139f000000000000000000000000000000000000000000000000000000007bffffffffffffffffffffffffffffffffffffffffffffffffffffffff1916827bffffffffffffffffffffffffffffffffffffffffffffffffffffffff1916145b806103ce57506103cd82610c70565b5b9050919050565b6060600080546103e4906127ab565b80601f0160208091040260200160405190810160405280929190818152602001828054610410906127ab565b801561045d5780601f106104325761010080835404028352916020019161045d565b820191906000526020600020905b81548152906001019060200180831161044057829003601f168201915b5050505050905090565b600061047282610cda565b6104b1576040517f08c379a00000000000000000000000000000000000000000000000000000000081526004016104a8906124d5565b60405180910390fd5b6004600083815260200190815260200160002060009054906101000a900473ffffffffffffffffffffffffffffffffffffffff169050919050565b60006104f78261077d565b90508073ffffffffffffffffffffffffffffffffffffffff168373ffffffffffffffffffffffffffffffffffffffff161415610568576040517f08c379a000000000000000000000000000000000000000000000000000000000815260040161055f90612515565b60405180910390fd5b8073ffffffffffffffffffffffffffffffffffffffff16610587610d46565b73ffffffffffffffffffffffffffffffffffffffff1614806105b657506105b5816105b0610d46565b610b43565b5b6105f5576040517f08c379a00000000000000000000000000000000000000000000000000000000081526004016105ec90612415565b60405180910390fd5b6105ff8383610d4e565b505050565b61061561060f610d46565b82610e07565b610654576040517f08c379a000000000000000000000000000000000000000000000000000000000815260040161064b90612535565b60405180910390fd5b61065f838383610ee5565b505050565b6000610670600761114c565b90506000826040516020016106859190612246565b6040516020818303038152906040529050603282106106d9576040517f08c379a00000000000000000000000000000000000000000000000000000000081526004016106d090612395565b60405180910390fd5b6106e3338361115a565b6106ed8282611178565b610715816040516020016107019190612224565b604051602081830303815290604052610bd7565b61071f60076111ec565b7febb98688741ffa4c7589bf325de30cf7becb63de567842e1ccdb6cb949fdc82c33836040516107509291906122cf565b60405180910390a1505050565b6107788383836040518060200160405280600081525061098f565b505050565b6000806002600084815260200190815260200160002060009054906101000a900473ffffffffffffffffffffffffffffffffffffffff169050600073ffffffffffffffffffffffffffffffffffffffff168173ffffffffffffffffffffffffffffffffffffffff161415610826576040517f08c379a000000000000000000000000000000000000000000000000000000000815260040161081d90612455565b60405180910390fd5b80915050919050565b60008073ffffffffffffffffffffffffffffffffffffffff168273ffffffffffffffffffffffffffffffffffffffff1614156108a0576040517f08c379a000000000000000000000000000000000000000000000000000000000815260040161089790612435565b60405180910390fd5b600360008373ffffffffffffffffffffffffffffffffffffffff1673ffffffffffffffffffffffffffffffffffffffff168152602001908152602001600020549050919050565b6060600180546108f6906127ab565b80601f0160208091040260200160405190810160405280929190818152602001828054610922906127ab565b801561096f5780601f106109445761010080835404028352916020019161096f565b820191906000526020600020905b81548152906001019060200180831161095257829003601f168201915b5050505050905090565b61098b610984610d46565b8383611202565b5050565b6109a061099a610d46565b83610e07565b6109df576040517f08c379a00000000000000000000000000000000000000000000000000000000081526004016109d690612535565b60405180910390fd5b6109eb8484848461136f565b50505050565b60606109fc82610cda565b610a3b576040517f08c379a0000000000000000000000000000000000000000000000000000000008152600401610a32906124b5565b60405180910390fd5b6000600660008481526020019081526020016000208054610a5b906127ab565b80601f0160208091040260200160405190810160405280929190818152602001828054610a87906127ab565b8015610ad45780601f10610aa957610100808354040283529160200191610ad4565b820191906000526020600020905b815481529060010190602001808311610ab757829003601f168201915b505050505090506000610ae56113cb565b9050600081511415610afb578192505050610b3e565b600082511115610b30578082604051602001610b18929190612200565b60405160208183030381529060405292505050610b3e565b610b39846113e2565b925050505b919050565b6000600560008473ffffffffffffffffffffffffffffffffffffffff1673ffffffffffffffffffffffffffffffffffffffff16815260200190815260200160002060008373ffffffffffffffffffffffffffffffffffffffff1673ffffffffffffffffffffffffffffffffffffffff16815260200190815260200160002060009054906101000a900460ff16905092915050565b610c6d81604051602401610beb9190612313565b6040516020818303038152906040527f41304fac000000000000000000000000000000000000000000000000000000007bffffffffffffffffffffffffffffffffffffffffffffffffffffffff19166020820180517bffffffffffffffffffffffffffffffffffffffffffffffffffffffff8381831617835250505050611489565b50565b60007f01ffc9a7000000000000000000000000000000000000000000000000000000007bffffffffffffffffffffffffffffffffffffffffffffffffffffffff1916827bffffffffffffffffffffffffffffffffffffffffffffffffffffffff1916149050919050565b60008073ffffffffffffffffffffffffffffffffffffffff166002600084815260200190815260200160002060009054906101000a900473ffffffffffffffffffffffffffffffffffffffff1673ffffffffffffffffffffffffffffffffffffffff1614159050919050565b600033905090565b816004600083815260200190815260200160002060006101000a81548173ffffffffffffffffffffffffffffffffffffffff021916908373ffffffffffffffffffffffffffffffffffffffff160217905550808273ffffffffffffffffffffffffffffffffffffffff16610dc18361077d565b73ffffffffffffffffffffffffffffffffffffffff167f8c5be1e5ebec7d5bd14f71427d1e84f3dd0314c0f7b2291e5b200ac8c7c3b92560405160405180910390a45050565b6000610e1282610cda565b610e51576040517f08c379a0000000000000000000000000000000000000000000000000000000008152600401610e48906123f5565b60405180910390fd5b6000610e5c8361077d565b90508073ffffffffffffffffffffffffffffffffffffffff168473ffffffffffffffffffffffffffffffffffffffff161480610ecb57508373ffffffffffffffffffffffffffffffffffffffff16610eb384610467565b73ffffffffffffffffffffffffffffffffffffffff16145b80610edc5750610edb8185610b43565b5b91505092915050565b8273ffffffffffffffffffffffffffffffffffffffff16610f058261077d565b73ffffffffffffffffffffffffffffffffffffffff1614610f5b576040517f08c379a0000000000000000000000000000000000000000000000000000000008152600401610f5290612355565b60405180910390fd5b600073ffffffffffffffffffffffffffffffffffffffff168273ffffffffffffffffffffffffffffffffffffffff161415610fcb576040517f08c379a0000000000000000000000000000000000000000000000000000000008152600401610fc2906123b5565b60405180910390fd5b610fd68383836114b2565b610fe1600082610d4e565b6001600360008573ffffffffffffffffffffffffffffffffffffffff1673ffffffffffffffffffffffffffffffffffffffff168152602001908152602001600020600082825461103191906126c1565b925050819055506001600360008473ffffffffffffffffffffffffffffffffffffffff1673ffffffffffffffffffffffffffffffffffffffff1681526020019081526020016000206000828254611088919061263a565b92505081905550816002600083815260200190815260200160002060006101000a81548173ffffffffffffffffffffffffffffffffffffffff021916908373ffffffffffffffffffffffffffffffffffffffff160217905550808273ffffffffffffffffffffffffffffffffffffffff168473ffffffffffffffffffffffffffffffffffffffff167fddf252ad1be2c89b69c2b068fc378daa952ba7f163c4a11628f55a4df523b3ef60405160405180910390a46111478383836114b7565b505050565b600081600001549050919050565b6111748282604051806020016040528060008152506114bc565b5050565b61118182610cda565b6111c0576040517f08c379a00000000000000000000000000000000000000000000000000000000081526004016111b790612475565b60405180910390fd5b806006600084815260200190815260200160002090805190602001906111e7929190611a58565b505050565b6001816000016000828254019250508190555050565b8173ffffffffffffffffffffffffffffffffffffffff168373ffffffffffffffffffffffffffffffffffffffff161415611271576040517f08c379a0000000000000000000000000000000000000000000000000000000008152600401611268906123d5565b60405180910390fd5b80600560008573ffffffffffffffffffffffffffffffffffffffff1673ffffffffffffffffffffffffffffffffffffffff16815260200190815260200160002060008473ffffffffffffffffffffffffffffffffffffffff1673ffffffffffffffffffffffffffffffffffffffff16815260200190815260200160002060006101000a81548160ff0219169083151502179055508173ffffffffffffffffffffffffffffffffffffffff168373ffffffffffffffffffffffffffffffffffffffff167f17307eab39ab6107e8899845ad3d59bd9653f200f220920489ca2b5937696c318360405161136291906122f8565b60405180910390a3505050565b61137a848484610ee5565b61138684848484611517565b6113c5576040517f08c379a00000000000000000000000000000000000000000000000000000000081526004016113bc90612335565b60405180910390fd5b50505050565b606060405180602001604052806000815250905090565b60606113ed82610cda565b61142c576040517f08c379a0000000000000000000000000000000000000000000000000000000008152600401611423906124f5565b60405180910390fd5b60006114366113cb565b905060008151116114565760405180602001604052806000815250611481565b80611460846116ae565b604051602001611471929190612200565b6040516020818303038152906040525b915050919050565b60008151905060006a636f6e736f6c652e6c6f679050602083016000808483855afa5050505050565b505050565b505050565b6114c6838361185b565b6114d36000848484611517565b611512576040517f08c379a000000000000000000000000000000000000000000000000000000000815260040161150990612335565b60405180910390fd5b505050565b60006115388473ffffffffffffffffffffffffffffffffffffffff16611a35565b156116a1578373ffffffffffffffffffffffffffffffffffffffff1663150b7a02611561610d46565b8786866040518563ffffffff1660e01b81526004016115839493929190612283565b602060405180830381600087803b15801561159d57600080fd5b505af19250505080156115ce57506040513d601f19601f820116820180604052508101906115cb9190611e04565b60015b611651573d80600081146115fe576040519150601f19603f3d011682016040523d82523d6000602084013e611603565b606091505b50600081511415611649576040517f08c379a000000000000000000000000000000000000000000000000000000000815260040161164090612335565b60405180910390fd5b805181602001fd5b63150b7a0260e01b7bffffffffffffffffffffffffffffffffffffffffffffffffffffffff1916817bffffffffffffffffffffffffffffffffffffffffffffffffffffffff1916149150506116a6565b600190505b949350505050565b606060008214156116f6576040518060400160405280600181526020017f30000000000000000000000000000000000000000000000000000000000000008152509050611856565b600082905060005b600082146117285780806117119061280e565b915050600a826117219190612690565b91506116fe565b60008167ffffffffffffffff81111561176a577f4e487b7100000000000000000000000000000000000000000000000000000000600052604160045260246000fd5b6040519080825280601f01601f19166020018201604052801561179c5781602001600182028036833780820191505090505b5090505b6000851461184f576001826117b591906126c1565b9150600a856117c49190612857565b60306117d0919061263a565b60f81b81838151811061180c577f4e487b7100000000000000000000000000000000000000000000000000000000600052603260045260246000fd5b60200101907effffffffffffffffffffffffffffffffffffffffffffffffffffffffffffff1916908160001a905350600a856118489190612690565b94506117a0565b8093505050505b919050565b600073ffffffffffffffffffffffffffffffffffffffff168273ffffffffffffffffffffffffffffffffffffffff1614156118cb576040517f08c379a00000000000000000000000000000000000000000000000000000000081526004016118c290612495565b60405180910390fd5b6118d481610cda565b15611914576040517f08c379a000000000000000000000000000000000000000000000000000000000815260040161190b90612375565b60405180910390fd5b611920600083836114b2565b6001600360008473ffffffffffffffffffffffffffffffffffffffff1673ffffffffffffffffffffffffffffffffffffffff1681526020019081526020016000206000828254611970919061263a565b92505081905550816002600083815260200190815260200160002060006101000a81548173ffffffffffffffffffffffffffffffffffffffff021916908373ffffffffffffffffffffffffffffffffffffffff160217905550808273ffffffffffffffffffffffffffffffffffffffff16600073ffffffffffffffffffffffffffffffffffffffff167fddf252ad1be2c89b69c2b068fc378daa952ba7f163c4a11628f55a4df523b3ef60405160405180910390a4611a31600083836114b7565b5050565b6000808273ffffffffffffffffffffffffffffffffffffffff163b119050919050565b828054611a64906127ab565b90600052602060002090601f016020900481019282611a865760008555611acd565b82601f10611a9f57805160ff1916838001178555611acd565b82800160010185558215611acd579182015b82811115611acc578251825591602001919060010190611ab1565b5b509050611ada9190611ade565b5090565b5b80821115611af7576000816000905550600101611adf565b5090565b6000611b0e611b0984612595565b612570565b905082815260208101848484011115611b2657600080fd5b611b31848285612769565b509392505050565b6000611b4c611b47846125c6565b612570565b905082815260208101848484011115611b6457600080fd5b611b6f848285612769565b509392505050565b600081359050611b8681612e74565b92915050565b600081359050611b9b81612e8b565b92915050565b600081359050611bb081612ea2565b92915050565b600081519050611bc581612ea2565b92915050565b600082601f830112611bdc57600080fd5b8135611bec848260208601611afb565b91505092915050565b600082601f830112611c0657600080fd5b8135611c16848260208601611b39565b91505092915050565b600081359050611c2e81612eb9565b92915050565b600060208284031215611c4657600080fd5b6000611c5484828501611b77565b91505092915050565b60008060408385031215611c7057600080fd5b6000611c7e85828601611b77565b9250506020611c8f85828601611b77565b9150509250929050565b600080600060608486031215611cae57600080fd5b6000611cbc86828701611b77565b9350506020611ccd86828701611b77565b9250506040611cde86828701611c1f565b9150509250925092565b60008060008060808587031215611cfe57600080fd5b6000611d0c87828801611b77565b9450506020611d1d87828801611b77565b9350506040611d2e87828801611c1f565b925050606085013567ffffffffffffffff811115611d4b57600080fd5b611d5787828801611bcb565b91505092959194509250565b60008060408385031215611d7657600080fd5b6000611d8485828601611b77565b9250506020611d9585828601611b8c565b9150509250929050565b60008060408385031215611db257600080fd5b6000611dc085828601611b77565b9250506020611dd185828601611c1f565b9150509250929050565b600060208284031215611ded57600080fd5b6000611dfb84828501611ba1565b91505092915050565b600060208284031215611e1657600080fd5b6000611e2484828501611bb6565b91505092915050565b600060208284031215611e3f57600080fd5b600082013567ffffffffffffffff811115611e5957600080fd5b611e6584828501611bf5565b91505092915050565b600060208284031215611e8057600080fd5b6000611e8e84828501611c1f565b91505092915050565b611ea0816126f5565b82525050565b611eaf81612707565b82525050565b6000611ec0826125f7565b611eca818561260d565b9350611eda818560208601612778565b611ee381612944565b840191505092915050565b6000611ef982612602565b611f03818561261e565b9350611f13818560208601612778565b611f1c81612944565b840191505092915050565b6000611f3282612602565b611f3c818561262f565b9350611f4c818560208601612778565b80840191505092915050565b6000611f6560258361262f565b9150611f7082612955565b602582019050919050565b6000611f8860328361261e565b9150611f93826129a4565b604082019050919050565b6000611fab60258361261e565b9150611fb6826129f3565b604082019050919050565b6000611fce601c8361261e565b9150611fd982612a42565b602082019050919050565b6000611ff1601a8361261e565b9150611ffc82612a6b565b602082019050919050565b600061201460248361261e565b915061201f82612a94565b604082019050919050565b600061203760198361261e565b915061204282612ae3565b602082019050919050565b600061205a602c8361261e565b915061206582612b0c565b604082019050919050565b600061207d60388361261e565b915061208882612b5b565b604082019050919050565b60006120a0602a8361261e565b91506120ab82612baa565b604082019050919050565b60006120c360298361261e565b91506120ce82612bf9565b604082019050919050565b60006120e6602e8361261e565b91506120f182612c48565b604082019050919050565b600061210960208361261e565b915061211482612c97565b602082019050919050565b600061212c60318361261e565b915061213782612cc0565b604082019050919050565b600061214f602c8361261e565b915061215a82612d0f565b604082019050919050565b6000612172602f8361261e565b915061217d82612d5e565b604082019050919050565b600061219560218361261e565b91506121a082612dad565b604082019050919050565b60006121b8601d8361262f565b91506121c382612dfc565b601d82019050919050565b60006121db60318361261e565b91506121e682612e25565b604082019050919050565b6121fa8161275f565b82525050565b600061220c8285611f27565b91506122188284611f27565b91508190509392505050565b600061222f82611f58565b915061223b8284611f27565b915081905092915050565b6000612251826121ab565b915061225d8284611f27565b915081905092915050565b600060208201905061227d6000830184611e97565b92915050565b60006080820190506122986000830187611e97565b6122a56020830186611e97565b6122b260408301856121f1565b81810360608301526122c48184611eb5565b905095945050505050565b60006040820190506122e46000830185611e97565b6122f160208301846121f1565b9392505050565b600060208201905061230d6000830184611ea6565b92915050565b6000602082019050818103600083015261232d8184611eee565b905092915050565b6000602082019050818103600083015261234e81611f7b565b9050919050565b6000602082019050818103600083015261236e81611f9e565b9050919050565b6000602082019050818103600083015261238e81611fc1565b9050919050565b600060208201905081810360008301526123ae81611fe4565b9050919050565b600060208201905081810360008301526123ce81612007565b9050919050565b600060208201905081810360008301526123ee8161202a565b9050919050565b6000602082019050818103600083015261240e8161204d565b9050919050565b6000602082019050818103600083015261242e81612070565b9050919050565b6000602082019050818103600083015261244e81612093565b9050919050565b6000602082019050818103600083015261246e816120b6565b9050919050565b6000602082019050818103600083015261248e816120d9565b9050919050565b600060208201905081810360008301526124ae816120fc565b9050919050565b600060208201905081810360008301526124ce8161211f565b9050919050565b600060208201905081810360008301526124ee81612142565b9050919050565b6000602082019050818103600083015261250e81612165565b9050919050565b6000602082019050818103600083015261252e81612188565b9050919050565b6000602082019050818103600083015261254e816121ce565b9050919050565b600060208201905061256a60008301846121f1565b92915050565b600061257a61258b565b905061258682826127dd565b919050565b6000604051905090565b600067ffffffffffffffff8211156125b0576125af612915565b5b6125b982612944565b9050602081019050919050565b600067ffffffffffffffff8211156125e1576125e0612915565b5b6125ea82612944565b9050602081019050919050565b600081519050919050565b600081519050919050565b600082825260208201905092915050565b600082825260208201905092915050565b600081905092915050565b60006126458261275f565b91506126508361275f565b9250827fffffffffffffffffffffffffffffffffffffffffffffffffffffffffffffffff0382111561268557612684612888565b5b828201905092915050565b600061269b8261275f565b91506126a68361275f565b9250826126b6576126b56128b7565b5b828204905092915050565b60006126cc8261275f565b91506126d78361275f565b9250828210156126ea576126e9612888565b5b828203905092915050565b60006127008261273f565b9050919050565b60008115159050919050565b60007fffffffff0000000000000000000000000000000000000000000000000000000082169050919050565b600073ffffffffffffffffffffffffffffffffffffffff82169050919050565b6000819050919050565b82818337600083830152505050565b60005b8381101561279657808201518184015260208101905061277b565b838111156127a5576000848401525b50505050565b600060028204905060018216806127c357607f821691505b602082108114156127d7576127d66128e6565b5b50919050565b6127e682612944565b810181811067ffffffffffffffff8211171561280557612804612915565b5b80604052505050565b60006128198261275f565b91507fffffffffffffffffffffffffffffffffffffffffffffffffffffffffffffffff82141561284c5761284b612888565b5b600182019050919050565b60006128628261275f565b915061286d8361275f565b92508261287d5761287c6128b7565b5b828206905092915050565b7f4e487b7100000000000000000000000000000000000000000000000000000000600052601160045260246000fd5b7f4e487b7100000000000000000000000000000000000000000000000000000000600052601260045260246000fd5b7f4e487b7100000000000000000000000000000000000000000000000000000000600052602260045260246000fd5b7f4e487b7100000000000000000000000000000000000000000000000000000000600052604160045260246000fd5b6000601f19601f8301169050919050565b7f68747470733a2f2f6e6674707265766965772e30786465762e636f6465732f3f60008201527f636f64653d000000000000000000000000000000000000000000000000000000602082015250565b7f4552433732313a207472616e7366657220746f206e6f6e20455243373231526560008201527f63656976657220696d706c656d656e7465720000000000000000000000000000602082015250565b7f4552433732313a207472616e736665722066726f6d20696e636f72726563742060008201527f6f776e6572000000000000000000000000000000000000000000000000000000602082015250565b7f4552433732313a20746f6b656e20616c7265616479206d696e74656400000000600082015250565b7f4d6178206e756d626572206f66204e46547320616c6c6f776564000000000000600082015250565b7f4552433732313a207472616e7366657220746f20746865207a65726f2061646460008201527f7265737300000000000000000000000000000000000000000000000000000000602082015250565b7f4552433732313a20617070726f766520746f2063616c6c657200000000000000600082015250565b7f4552433732313a206f70657261746f7220717565727920666f72206e6f6e657860008201527f697374656e7420746f6b656e0000000000000000000000000000000000000000602082015250565b7f4552433732313a20617070726f76652063616c6c6572206973206e6f74206f7760008201527f6e6572206e6f7220617070726f76656420666f7220616c6c0000000000000000602082015250565b7f4552433732313a2062616c616e636520717565727920666f7220746865207a6560008201527f726f206164647265737300000000000000000000000000000000000000000000602082015250565b7f4552433732313a206f776e657220717565727920666f72206e6f6e657869737460008201527f656e7420746f6b656e0000000000000000000000000000000000000000000000602082015250565b7f45524337323155524953746f726167653a2055524920736574206f66206e6f6e60008201527f6578697374656e7420746f6b656e000000000000000000000000000000000000602082015250565b7f4552433732313a206d696e7420746f20746865207a65726f2061646472657373600082015250565b7f45524337323155524953746f726167653a2055524920717565727920666f722060008201527f6e6f6e6578697374656e7420746f6b656e000000000000000000000000000000602082015250565b7f4552433732313a20617070726f76656420717565727920666f72206e6f6e657860008201527f697374656e7420746f6b656e0000000000000000000000000000000000000000602082015250565b7f4552433732314d657461646174613a2055524920717565727920666f72206e6f60008201527f6e6578697374656e7420746f6b656e0000000000000000000000000000000000602082015250565b7f4552433732313a20617070726f76616c20746f2063757272656e74206f776e6560008201527f7200000000000000000000000000000000000000000000000000000000000000602082015250565b7f646174613a6170706c69636174696f6e2f6a736f6e3b6261736536342c000000600082015250565b7f4552433732313a207472616e736665722063616c6c6572206973206e6f74206f60008201527f776e6572206e6f7220617070726f766564000000000000000000000000000000602082015250565b612e7d816126f5565b8114612e8857600080fd5b50565b612e9481612707565b8114612e9f57600080fd5b50565b612eab81612713565b8114612eb657600080fd5b50565b612ec28161275f565b8114612ecd57600080fd5b5056fea26469706673582212200d0d9179e1c8c26e08774099ed58c4452444df2d732ec530c797d67cd9dcd4ea64736f6c63430008010033",
  "linkReferences": {},
  "deployedLinkReferences": {}
}