{
  "_format": "hh-sol-artifact-1",
  "contractName": "MyEpicNFT",
  "sourceName": "contracts/MyEpicNFT.sol",
  "abi": [
    {
      "inputs": [],
      "stateMutability": "nonpayable",
      "type": "constructor"
    },
    {
      "anonymous": false,
      "inputs": [
        {
          "indexed": true,
          "internalType": "address",
          "name": "owner",
          "type": "address"
        },
        {
          "indexed": true,
          "internalType": "address",
          "name": "approved",
          "type": "address"
        },
        {
          "indexed": true,
          "internalType": "uint256",
          "name": "tokenId",
          "type": "uint256"
        }
      ],
      "name": "Approval",
      "type": "event"
    },
    {
      "anonymous": false,
      "inputs": [
        {
          "indexed": true,
          "internalType": "address",
          "name": "owner",
          "type": "address"
        },
        {
          "indexed": true,
          "internalType": "address",
          "name": "operator",
          "type": "address"
        },
        {
          "indexed": false,
          "internalType": "bool",
          "name": "approved",
          "type": "bool"
        }
      ],
      "name": "ApprovalForAll",
      "type": "event"
    },
    {
      "anonymous": false,
      "inputs": [
        {
          "indexed": false,
          "internalType": "address",
          "name": "sender",
          "type": "address"
        },
        {
          "indexed": false,
          "internalType": "uint256",
          "name": "tokenId",
          "type": "uint256"
        }
      ],
      "name": "NewEpicNFTMinted",
      "type": "event"
    },
    {
      "anonymous": false,
      "inputs": [
        {
          "indexed": true,
          "internalType": "address",
          "name": "from",
          "type": "address"
        },
        {
          "indexed": true,
          "internalType": "address",
          "name": "to",
          "type": "address"
        },
        {
          "indexed": true,
          "internalType": "uint256",
          "name": "tokenId",
          "type": "uint256"
        }
      ],
      "name": "Transfer",
      "type": "event"
    },
    {
      "inputs": [
        {
          "internalType": "address",
          "name": "to",
          "type": "address"
        },
        {
          "internalType": "uint256",
          "name": "tokenId",
          "type": "uint256"
        }
      ],
      "name": "approve",
      "outputs": [],
      "stateMutability": "nonpayable",
      "type": "function"
    },
    {
      "inputs": [
        {
          "internalType": "address",
          "name": "owner",
          "type": "address"
        }
      ],
      "name": "balanceOf",
      "outputs": [
        {
          "internalType": "uint256",
          "name": "",
          "type": "uint256"
        }
      ],
      "stateMutability": "view",
      "type": "function"
    },
    {
      "inputs": [
        {
          "internalType": "uint256",
          "name": "tokenId",
          "type": "uint256"
        }
      ],
      "name": "getApproved",
      "outputs": [
        {
          "internalType": "address",
          "name": "",
          "type": "address"
        }
      ],
      "stateMutability": "view",
      "type": "function"
    },
    {
      "inputs": [
        {
          "internalType": "address",
          "name": "owner",
          "type": "address"
        },
        {
          "internalType": "address",
          "name": "operator",
          "type": "address"
        }
      ],
      "name": "isApprovedForAll",
      "outputs": [
        {
          "internalType": "bool",
          "name": "",
          "type": "bool"
        }
      ],
      "stateMutability": "view",
      "type": "function"
    },
    {
      "inputs": [
        {
          "internalType": "string",
          "name": "metaData",
          "type": "string"
        }
      ],
      "name": "makeAnEpicNFT",
      "outputs": [],
      "stateMutability": "nonpayable",
      "type": "function"
    },
    {
      "inputs": [],
      "name": "name",
      "outputs": [
        {
          "internalType": "string",
          "name": "",
          "type": "string"
        }
      ],
      "stateMutability": "view",
      "type": "function"
    },
    {
      "inputs": [
        {
          "internalType": "uint256",
          "name": "tokenId",
          "type": "uint256"
        }
      ],
      "name": "ownerOf",
      "outputs": [
        {
          "internalType": "address",
          "name": "",
          "type": "address"
        }
      ],
      "stateMutability": "view",
      "type": "function"
    },
    {
      "inputs": [
        {
          "internalType": "address",
          "name": "from",
          "type": "address"
        },
        {
          "internalType": "address",
          "name": "to",
          "type": "address"
        },
        {
          "internalType": "uint256",
          "name": "tokenId",
          "type": "uint256"
        }
      ],
      "name": "safeTransferFrom",
      "outputs": [],
      "stateMutability": "nonpayable",
      "type": "function"
    },
    {
      "inputs": [
        {
          "internalType": "address",
          "name": "from",
          "type": "address"
        },
        {
          "internalType": "address",
          "name": "to",
          "type": "address"
        },
        {
          "internalType": "uint256",
          "name": "tokenId",
          "type": "uint256"
        },
        {
          "internalType": "bytes",
          "name": "_data",
          "type": "bytes"
        }
      ],
      "name": "safeTransferFrom",
      "outputs": [],
      "stateMutability": "nonpayable",
      "type": "function"
    },
    {
      "inputs": [
        {
          "internalType": "address",
          "name": "operator",
          "type": "address"
        },
        {
          "internalType": "bool",
          "name": "approved",
          "type": "bool"
        }
      ],
      "name": "setApprovalForAll",
      "outputs": [],
      "stateMutability": "nonpayable",
      "type": "function"
    },
    {
      "inputs": [
        {
          "internalType": "bytes4",
          "name": "interfaceId",
          "type": "bytes4"
        }
      ],
      "name": "supportsInterface",
      "outputs": [
        {
          "internalType": "bool",
          "name": "",
          "type": "bool"
        }
      ],
      "stateMutability": "view",
      "type": "function"
    },
    {
      "inputs": [],
      "name": "symbol",
      "outputs": [
        {
          "internalType": "string",
          "name": "",
          "type": "string"
        }
      ],
      "stateMutability": "view",
      "type": "function"
    },
    {
      "inputs": [
        {
          "internalType": "uint256",
          "name": "tokenId",
          "type": "uint256"
        }
      ],
      "name": "tokenURI",
      "outputs": [
        {
          "internalType": "string",
          "name": "",
          "type": "string"
        }
      ],
      "stateMutability": "view",
      "type": "function"
    },
    {
      "inputs": [
        {
          "internalType": "address",
          "name": "from",
          "type": "address"
        },
        {
          "internalType": "address",
          "name": "to",
          "type": "address"
        },
        {
          "internalType": "uint256",
          "name": "tokenId",
          "type": "uint256"
        }
      ],
      "name": "transferFrom",
      "outputs": [],
      "stateMutability": "nonpayable",
      "type": "function"
    }
  ],
  "bytecode": "0x60806040523480156200001157600080fd5b506040518060400160405280600981526020017f74657374546f6b656e00000000000000000000000000000000000000000000008152506040518060400160405280600381526020017f54544b0000000000000000000000000000000000000000000000000000000000815250816000908051906020019062000096929190620001cf565b508060019080519060200190620000af929190620001cf565b505050620000fd6040518060400160405280601781526020017f536d61727420436f6e7472616374204465706c6f7965640000000000000000008152506200010360201b62000b8a1760201c565b620003ac565b620001a3816040516024016200011a9190620002c0565b6040516020818303038152906040527f41304fac000000000000000000000000000000000000000000000000000000007bffffffffffffffffffffffffffffffffffffffffffffffffffffffff19166020820180517bffffffffffffffffffffffffffffffffffffffffffffffffffffffff8381831617835250505050620001a660201b60201c565b50565b60008151905060006a636f6e736f6c652e6c6f679050602083016000808483855afa5050505050565b828054620001dd9062000336565b90600052602060002090601f0160209004810192826200020157600085556200024d565b82601f106200021c57805160ff19168380011785556200024d565b828001600101855582156200024d579182015b828111156200024c5782518255916020019190600101906200022f565b5b5090506200025c919062000260565b5090565b5b808211156200027b57600081600090555060010162000261565b5090565b60006200028c82620002e4565b620002988185620002ef565b9350620002aa81856020860162000300565b620002b5816200039b565b840191505092915050565b60006020820190508181036000830152620002dc81846200027f565b905092915050565b600081519050919050565b600082825260208201905092915050565b60005b838110156200032057808201518184015260208101905062000303565b8381111562000330576000848401525b50505050565b600060028204905060018216806200034f57607f821691505b602082108114156200036657620003656200036c565b5b50919050565b7f4e487b7100000000000000000000000000000000000000000000000000000000600052602260045260246000fd5b6000601f19601f8301169050919050565b612db780620003bc6000396000f3fe608060405234801561001057600080fd5b50600436106100ea5760003560e01c80636352211e1161008c578063a22cb46511610066578063a22cb4651461025b578063b88d4fde14610277578063c87b56dd14610293578063e985e9c5146102c3576100ea565b80636352211e146101dd57806370a082311461020d57806395d89b411461023d576100ea565b8063095ea7b3116100c8578063095ea7b31461016d57806323b872dd1461018957806339fa8daf146101a557806342842e0e146101c1576100ea565b806301ffc9a7146100ef57806306fdde031461011f578063081812fc1461013d575b600080fd5b61010960048036038101906101049190611d8e565b6102f3565b6040516101169190612221565b60405180910390f35b6101276103d5565b604051610134919061223c565b60405180910390f35b61015760048036038101906101529190611e21565b610467565b6040516101649190612191565b60405180910390f35b61018760048036038101906101829190611d52565b6104ec565b005b6101a3600480360381019061019e9190611c4c565b610604565b005b6101bf60048036038101906101ba9190611de0565b610664565b005b6101db60048036038101906101d69190611c4c565b610710565b005b6101f760048036038101906101f29190611e21565b610730565b6040516102049190612191565b60405180910390f35b61022760048036038101906102229190611be7565b6107e2565b604051610234919061247e565b60405180910390f35b61024561089a565b604051610252919061223c565b60405180910390f35b61027560048036038101906102709190611d16565b61092c565b005b610291600480360381019061028c9190611c9b565b610942565b005b6102ad60048036038101906102a89190611e21565b6109a4565b6040516102ba919061223c565b60405180910390f35b6102dd60048036038101906102d89190611c10565b610af6565b6040516102ea9190612221565b60405180910390f35b60007f80ac58cd000000000000000000000000000000000000000000000000000000007bffffffffffffffffffffffffffffffffffffffffffffffffffffffff1916827bffffffffffffffffffffffffffffffffffffffffffffffffffffffff191614806103be57507f5b5e139f000000000000000000000000000000000000000000000000000000007bffffffffffffffffffffffffffffffffffffffffffffffffffffffff1916827bffffffffffffffffffffffffffffffffffffffffffffffffffffffff1916145b806103ce57506103cd82610c23565b5b9050919050565b6060600080546103e4906126d4565b80601f0160208091040260200160405190810160405280929190818152602001828054610410906126d4565b801561045d5780601f106104325761010080835404028352916020019161045d565b820191906000526020600020905b81548152906001019060200180831161044057829003601f168201915b5050505050905090565b600061047282610c8d565b6104b1576040517f08c379a00000000000000000000000000000000000000000000000000000000081526004016104a8906123fe565b60405180910390fd5b6004600083815260200190815260200160002060009054906101000a900473ffffffffffffffffffffffffffffffffffffffff169050919050565b60006104f782610730565b90508073ffffffffffffffffffffffffffffffffffffffff168373ffffffffffffffffffffffffffffffffffffffff161415610568576040517f08c379a000000000000000000000000000000000000000000000000000000000815260040161055f9061243e565b60405180910390fd5b8073ffffffffffffffffffffffffffffffffffffffff16610587610cf9565b73ffffffffffffffffffffffffffffffffffffffff1614806105b657506105b5816105b0610cf9565b610af6565b5b6105f5576040517f08c379a00000000000000000000000000000000000000000000000000000000081526004016105ec9061233e565b60405180910390fd5b6105ff8383610d01565b505050565b61061561060f610cf9565b82610dba565b610654576040517f08c379a000000000000000000000000000000000000000000000000000000000815260040161064b9061245e565b60405180910390fd5b61065f838383610e98565b505050565b600061067060076110ff565b9050603281106106b5576040517f08c379a00000000000000000000000000000000000000000000000000000000081526004016106ac906122be565b60405180910390fd5b6106bf338261110d565b6106c9818361112b565b6106d3600761119f565b7febb98688741ffa4c7589bf325de30cf7becb63de567842e1ccdb6cb949fdc82c33826040516107049291906121f8565b60405180910390a15050565b61072b83838360405180602001604052806000815250610942565b505050565b6000806002600084815260200190815260200160002060009054906101000a900473ffffffffffffffffffffffffffffffffffffffff169050600073ffffffffffffffffffffffffffffffffffffffff168173ffffffffffffffffffffffffffffffffffffffff1614156107d9576040517f08c379a00000000000000000000000000000000000000000000000000000000081526004016107d09061237e565b60405180910390fd5b80915050919050565b60008073ffffffffffffffffffffffffffffffffffffffff168273ffffffffffffffffffffffffffffffffffffffff161415610853576040517f08c379a000000000000000000000000000000000000000000000000000000000815260040161084a9061235e565b60405180910390fd5b600360008373ffffffffffffffffffffffffffffffffffffffff1673ffffffffffffffffffffffffffffffffffffffff168152602001908152602001600020549050919050565b6060600180546108a9906126d4565b80601f01602080910402602001604051908101604052809291908181526020018280546108d5906126d4565b80156109225780601f106108f757610100808354040283529160200191610922565b820191906000526020600020905b81548152906001019060200180831161090557829003601f168201915b5050505050905090565b61093e610937610cf9565b83836111b5565b5050565b61095361094d610cf9565b83610dba565b610992576040517f08c379a00000000000000000000000000000000000000000000000000000000081526004016109899061245e565b60405180910390fd5b61099e84848484611322565b50505050565b60606109af82610c8d565b6109ee576040517f08c379a00000000000000000000000000000000000000000000000000000000081526004016109e5906123de565b60405180910390fd5b6000600660008481526020019081526020016000208054610a0e906126d4565b80601f0160208091040260200160405190810160405280929190818152602001828054610a3a906126d4565b8015610a875780601f10610a5c57610100808354040283529160200191610a87565b820191906000526020600020905b815481529060010190602001808311610a6a57829003601f168201915b505050505090506000610a9861137e565b9050600081511415610aae578192505050610af1565b600082511115610ae3578082604051602001610acb92919061216d565b60405160208183030381529060405292505050610af1565b610aec84611395565b925050505b919050565b6000600560008473ffffffffffffffffffffffffffffffffffffffff1673ffffffffffffffffffffffffffffffffffffffff16815260200190815260200160002060008373ffffffffffffffffffffffffffffffffffffffff1673ffffffffffffffffffffffffffffffffffffffff16815260200190815260200160002060009054906101000a900460ff16905092915050565b610c2081604051602401610b9e919061223c565b6040516020818303038152906040527f41304fac000000000000000000000000000000000000000000000000000000007bffffffffffffffffffffffffffffffffffffffffffffffffffffffff19166020820180517bffffffffffffffffffffffffffffffffffffffffffffffffffffffff838183161783525050505061143c565b50565b60007f01ffc9a7000000000000000000000000000000000000000000000000000000007bffffffffffffffffffffffffffffffffffffffffffffffffffffffff1916827bffffffffffffffffffffffffffffffffffffffffffffffffffffffff1916149050919050565b60008073ffffffffffffffffffffffffffffffffffffffff166002600084815260200190815260200160002060009054906101000a900473ffffffffffffffffffffffffffffffffffffffff1673ffffffffffffffffffffffffffffffffffffffff1614159050919050565b600033905090565b816004600083815260200190815260200160002060006101000a81548173ffffffffffffffffffffffffffffffffffffffff021916908373ffffffffffffffffffffffffffffffffffffffff160217905550808273ffffffffffffffffffffffffffffffffffffffff16610d7483610730565b73ffffffffffffffffffffffffffffffffffffffff167f8c5be1e5ebec7d5bd14f71427d1e84f3dd0314c0f7b2291e5b200ac8c7c3b92560405160405180910390a45050565b6000610dc582610c8d565b610e04576040517f08c379a0000000000000000000000000000000000000000000000000000000008152600401610dfb9061231e565b60405180910390fd5b6000610e0f83610730565b90508073ffffffffffffffffffffffffffffffffffffffff168473ffffffffffffffffffffffffffffffffffffffff161480610e7e57508373ffffffffffffffffffffffffffffffffffffffff16610e6684610467565b73ffffffffffffffffffffffffffffffffffffffff16145b80610e8f5750610e8e8185610af6565b5b91505092915050565b8273ffffffffffffffffffffffffffffffffffffffff16610eb882610730565b73ffffffffffffffffffffffffffffffffffffffff1614610f0e576040517f08c379a0000000000000000000000000000000000000000000000000000000008152600401610f059061227e565b60405180910390fd5b600073ffffffffffffffffffffffffffffffffffffffff168273ffffffffffffffffffffffffffffffffffffffff161415610f7e576040517f08c379a0000000000000000000000000000000000000000000000000000000008152600401610f75906122de565b60405180910390fd5b610f89838383611465565b610f94600082610d01565b6001600360008573ffffffffffffffffffffffffffffffffffffffff1673ffffffffffffffffffffffffffffffffffffffff1681526020019081526020016000206000828254610fe491906125ea565b925050819055506001600360008473ffffffffffffffffffffffffffffffffffffffff1673ffffffffffffffffffffffffffffffffffffffff168152602001908152602001600020600082825461103b9190612563565b92505081905550816002600083815260200190815260200160002060006101000a81548173ffffffffffffffffffffffffffffffffffffffff021916908373ffffffffffffffffffffffffffffffffffffffff160217905550808273ffffffffffffffffffffffffffffffffffffffff168473ffffffffffffffffffffffffffffffffffffffff167fddf252ad1be2c89b69c2b068fc378daa952ba7f163c4a11628f55a4df523b3ef60405160405180910390a46110fa83838361146a565b505050565b600081600001549050919050565b61112782826040518060200160405280600081525061146f565b5050565b61113482610c8d565b611173576040517f08c379a000000000000000000000000000000000000000000000000000000000815260040161116a9061239e565b60405180910390fd5b8060066000848152602001908152602001600020908051906020019061119a929190611a0b565b505050565b6001816000016000828254019250508190555050565b8173ffffffffffffffffffffffffffffffffffffffff168373ffffffffffffffffffffffffffffffffffffffff161415611224576040517f08c379a000000000000000000000000000000000000000000000000000000000815260040161121b906122fe565b60405180910390fd5b80600560008573ffffffffffffffffffffffffffffffffffffffff1673ffffffffffffffffffffffffffffffffffffffff16815260200190815260200160002060008473ffffffffffffffffffffffffffffffffffffffff1673ffffffffffffffffffffffffffffffffffffffff16815260200190815260200160002060006101000a81548160ff0219169083151502179055508173ffffffffffffffffffffffffffffffffffffffff168373ffffffffffffffffffffffffffffffffffffffff167f17307eab39ab6107e8899845ad3d59bd9653f200f220920489ca2b5937696c31836040516113159190612221565b60405180910390a3505050565b61132d848484610e98565b611339848484846114ca565b611378576040517f08c379a000000000000000000000000000000000000000000000000000000000815260040161136f9061225e565b60405180910390fd5b50505050565b606060405180602001604052806000815250905090565b60606113a082610c8d565b6113df576040517f08c379a00000000000000000000000000000000000000000000000000000000081526004016113d69061241e565b60405180910390fd5b60006113e961137e565b905060008151116114095760405180602001604052806000815250611434565b8061141384611661565b60405160200161142492919061216d565b6040516020818303038152906040525b915050919050565b60008151905060006a636f6e736f6c652e6c6f679050602083016000808483855afa5050505050565b505050565b505050565b611479838361180e565b61148660008484846114ca565b6114c5576040517f08c379a00000000000000000000000000000000000000000000000000000000081526004016114bc9061225e565b60405180910390fd5b505050565b60006114eb8473ffffffffffffffffffffffffffffffffffffffff166119e8565b15611654578373ffffffffffffffffffffffffffffffffffffffff1663150b7a02611514610cf9565b8786866040518563ffffffff1660e01b815260040161153694939291906121ac565b602060405180830381600087803b15801561155057600080fd5b505af192505050801561158157506040513d601f19601f8201168201806040525081019061157e9190611db7565b60015b611604573d80600081146115b1576040519150601f19603f3d011682016040523d82523d6000602084013e6115b6565b606091505b506000815114156115fc576040517f08c379a00000000000000000000000000000000000000000000000000000000081526004016115f39061225e565b60405180910390fd5b805181602001fd5b63150b7a0260e01b7bffffffffffffffffffffffffffffffffffffffffffffffffffffffff1916817bffffffffffffffffffffffffffffffffffffffffffffffffffffffff191614915050611659565b600190505b949350505050565b606060008214156116a9576040518060400160405280600181526020017f30000000000000000000000000000000000000000000000000000000000000008152509050611809565b600082905060005b600082146116db5780806116c490612737565b915050600a826116d491906125b9565b91506116b1565b60008167ffffffffffffffff81111561171d577f4e487b7100000000000000000000000000000000000000000000000000000000600052604160045260246000fd5b6040519080825280601f01601f19166020018201604052801561174f5781602001600182028036833780820191505090505b5090505b600085146118025760018261176891906125ea565b9150600a856117779190612780565b60306117839190612563565b60f81b8183815181106117bf577f4e487b7100000000000000000000000000000000000000000000000000000000600052603260045260246000fd5b60200101907effffffffffffffffffffffffffffffffffffffffffffffffffffffffffffff1916908160001a905350600a856117fb91906125b9565b9450611753565b8093505050505b919050565b600073ffffffffffffffffffffffffffffffffffffffff168273ffffffffffffffffffffffffffffffffffffffff16141561187e576040517f08c379a0000000000000000000000000000000000000000000000000000000008152600401611875906123be565b60405180910390fd5b61188781610c8d565b156118c7576040517f08c379a00000000000000000000000000000000000000000000000000000000081526004016118be9061229e565b60405180910390fd5b6118d360008383611465565b6001600360008473ffffffffffffffffffffffffffffffffffffffff1673ffffffffffffffffffffffffffffffffffffffff16815260200190815260200160002060008282546119239190612563565b92505081905550816002600083815260200190815260200160002060006101000a81548173ffffffffffffffffffffffffffffffffffffffff021916908373ffffffffffffffffffffffffffffffffffffffff160217905550808273ffffffffffffffffffffffffffffffffffffffff16600073ffffffffffffffffffffffffffffffffffffffff167fddf252ad1be2c89b69c2b068fc378daa952ba7f163c4a11628f55a4df523b3ef60405160405180910390a46119e46000838361146a565b5050565b6000808273ffffffffffffffffffffffffffffffffffffffff163b119050919050565b828054611a17906126d4565b90600052602060002090601f016020900481019282611a395760008555611a80565b82601f10611a5257805160ff1916838001178555611a80565b82800160010185558215611a80579182015b82811115611a7f578251825591602001919060010190611a64565b5b509050611a8d9190611a91565b5090565b5b80821115611aaa576000816000905550600101611a92565b5090565b6000611ac1611abc846124be565b612499565b905082815260208101848484011115611ad957600080fd5b611ae4848285612692565b509392505050565b6000611aff611afa846124ef565b612499565b905082815260208101848484011115611b1757600080fd5b611b22848285612692565b509392505050565b600081359050611b3981612d25565b92915050565b600081359050611b4e81612d3c565b92915050565b600081359050611b6381612d53565b92915050565b600081519050611b7881612d53565b92915050565b600082601f830112611b8f57600080fd5b8135611b9f848260208601611aae565b91505092915050565b600082601f830112611bb957600080fd5b8135611bc9848260208601611aec565b91505092915050565b600081359050611be181612d6a565b92915050565b600060208284031215611bf957600080fd5b6000611c0784828501611b2a565b91505092915050565b60008060408385031215611c2357600080fd5b6000611c3185828601611b2a565b9250506020611c4285828601611b2a565b9150509250929050565b600080600060608486031215611c6157600080fd5b6000611c6f86828701611b2a565b9350506020611c8086828701611b2a565b9250506040611c9186828701611bd2565b9150509250925092565b60008060008060808587031215611cb157600080fd5b6000611cbf87828801611b2a565b9450506020611cd087828801611b2a565b9350506040611ce187828801611bd2565b925050606085013567ffffffffffffffff811115611cfe57600080fd5b611d0a87828801611b7e565b91505092959194509250565b60008060408385031215611d2957600080fd5b6000611d3785828601611b2a565b9250506020611d4885828601611b3f565b9150509250929050565b60008060408385031215611d6557600080fd5b6000611d7385828601611b2a565b9250506020611d8485828601611bd2565b9150509250929050565b600060208284031215611da057600080fd5b6000611dae84828501611b54565b91505092915050565b600060208284031215611dc957600080fd5b6000611dd784828501611b69565b91505092915050565b600060208284031215611df257600080fd5b600082013567ffffffffffffffff811115611e0c57600080fd5b611e1884828501611ba8565b91505092915050565b600060208284031215611e3357600080fd5b6000611e4184828501611bd2565b91505092915050565b611e538161261e565b82525050565b611e6281612630565b82525050565b6000611e7382612520565b611e7d8185612536565b9350611e8d8185602086016126a1565b611e968161286d565b840191505092915050565b6000611eac8261252b565b611eb68185612547565b9350611ec68185602086016126a1565b611ecf8161286d565b840191505092915050565b6000611ee58261252b565b611eef8185612558565b9350611eff8185602086016126a1565b80840191505092915050565b6000611f18603283612547565b9150611f238261287e565b604082019050919050565b6000611f3b602583612547565b9150611f46826128cd565b604082019050919050565b6000611f5e601c83612547565b9150611f698261291c565b602082019050919050565b6000611f81601a83612547565b9150611f8c82612945565b602082019050919050565b6000611fa4602483612547565b9150611faf8261296e565b604082019050919050565b6000611fc7601983612547565b9150611fd2826129bd565b602082019050919050565b6000611fea602c83612547565b9150611ff5826129e6565b604082019050919050565b600061200d603883612547565b915061201882612a35565b604082019050919050565b6000612030602a83612547565b915061203b82612a84565b604082019050919050565b6000612053602983612547565b915061205e82612ad3565b604082019050919050565b6000612076602e83612547565b915061208182612b22565b604082019050919050565b6000612099602083612547565b91506120a482612b71565b602082019050919050565b60006120bc603183612547565b91506120c782612b9a565b604082019050919050565b60006120df602c83612547565b91506120ea82612be9565b604082019050919050565b6000612102602f83612547565b915061210d82612c38565b604082019050919050565b6000612125602183612547565b915061213082612c87565b604082019050919050565b6000612148603183612547565b915061215382612cd6565b604082019050919050565b61216781612688565b82525050565b60006121798285611eda565b91506121858284611eda565b91508190509392505050565b60006020820190506121a66000830184611e4a565b92915050565b60006080820190506121c16000830187611e4a565b6121ce6020830186611e4a565b6121db604083018561215e565b81810360608301526121ed8184611e68565b905095945050505050565b600060408201905061220d6000830185611e4a565b61221a602083018461215e565b9392505050565b60006020820190506122366000830184611e59565b92915050565b600060208201905081810360008301526122568184611ea1565b905092915050565b6000602082019050818103600083015261227781611f0b565b9050919050565b6000602082019050818103600083015261229781611f2e565b9050919050565b600060208201905081810360008301526122b781611f51565b9050919050565b600060208201905081810360008301526122d781611f74565b9050919050565b600060208201905081810360008301526122f781611f97565b9050919050565b6000602082019050818103600083015261231781611fba565b9050919050565b6000602082019050818103600083015261233781611fdd565b9050919050565b6000602082019050818103600083015261235781612000565b9050919050565b6000602082019050818103600083015261237781612023565b9050919050565b6000602082019050818103600083015261239781612046565b9050919050565b600060208201905081810360008301526123b781612069565b9050919050565b600060208201905081810360008301526123d78161208c565b9050919050565b600060208201905081810360008301526123f7816120af565b9050919050565b60006020820190508181036000830152612417816120d2565b9050919050565b60006020820190508181036000830152612437816120f5565b9050919050565b6000602082019050818103600083015261245781612118565b9050919050565b600060208201905081810360008301526124778161213b565b9050919050565b6000602082019050612493600083018461215e565b92915050565b60006124a36124b4565b90506124af8282612706565b919050565b6000604051905090565b600067ffffffffffffffff8211156124d9576124d861283e565b5b6124e28261286d565b9050602081019050919050565b600067ffffffffffffffff82111561250a5761250961283e565b5b6125138261286d565b9050602081019050919050565b600081519050919050565b600081519050919050565b600082825260208201905092915050565b600082825260208201905092915050565b600081905092915050565b600061256e82612688565b915061257983612688565b9250827fffffffffffffffffffffffffffffffffffffffffffffffffffffffffffffffff038211156125ae576125ad6127b1565b5b828201905092915050565b60006125c482612688565b91506125cf83612688565b9250826125df576125de6127e0565b5b828204905092915050565b60006125f582612688565b915061260083612688565b925082821015612613576126126127b1565b5b828203905092915050565b600061262982612668565b9050919050565b60008115159050919050565b60007fffffffff0000000000000000000000000000000000000000000000000000000082169050919050565b600073ffffffffffffffffffffffffffffffffffffffff82169050919050565b6000819050919050565b82818337600083830152505050565b60005b838110156126bf5780820151818401526020810190506126a4565b838111156126ce576000848401525b50505050565b600060028204905060018216806126ec57607f821691505b60208210811415612700576126ff61280f565b5b50919050565b61270f8261286d565b810181811067ffffffffffffffff8211171561272e5761272d61283e565b5b80604052505050565b600061274282612688565b91507fffffffffffffffffffffffffffffffffffffffffffffffffffffffffffffffff821415612775576127746127b1565b5b600182019050919050565b600061278b82612688565b915061279683612688565b9250826127a6576127a56127e0565b5b828206905092915050565b7f4e487b7100000000000000000000000000000000000000000000000000000000600052601160045260246000fd5b7f4e487b7100000000000000000000000000000000000000000000000000000000600052601260045260246000fd5b7f4e487b7100000000000000000000000000000000000000000000000000000000600052602260045260246000fd5b7f4e487b7100000000000000000000000000000000000000000000000000000000600052604160045260246000fd5b6000601f19601f8301169050919050565b7f4552433732313a207472616e7366657220746f206e6f6e20455243373231526560008201527f63656976657220696d706c656d656e7465720000000000000000000000000000602082015250565b7f4552433732313a207472616e736665722066726f6d20696e636f72726563742060008201527f6f776e6572000000000000000000000000000000000000000000000000000000602082015250565b7f4552433732313a20746f6b656e20616c7265616479206d696e74656400000000600082015250565b7f4d6178206e756d626572206f66204e46547320616c6c6f776564000000000000600082015250565b7f4552433732313a207472616e7366657220746f20746865207a65726f2061646460008201527f7265737300000000000000000000000000000000000000000000000000000000602082015250565b7f4552433732313a20617070726f766520746f2063616c6c657200000000000000600082015250565b7f4552433732313a206f70657261746f7220717565727920666f72206e6f6e657860008201527f697374656e7420746f6b656e0000000000000000000000000000000000000000602082015250565b7f4552433732313a20617070726f76652063616c6c6572206973206e6f74206f7760008201527f6e6572206e6f7220617070726f76656420666f7220616c6c0000000000000000602082015250565b7f4552433732313a2062616c616e636520717565727920666f7220746865207a6560008201527f726f206164647265737300000000000000000000000000000000000000000000602082015250565b7f4552433732313a206f776e657220717565727920666f72206e6f6e657869737460008201527f656e7420746f6b656e0000000000000000000000000000000000000000000000602082015250565b7f45524337323155524953746f726167653a2055524920736574206f66206e6f6e60008201527f6578697374656e7420746f6b656e000000000000000000000000000000000000602082015250565b7f4552433732313a206d696e7420746f20746865207a65726f2061646472657373600082015250565b7f45524337323155524953746f726167653a2055524920717565727920666f722060008201527f6e6f6e6578697374656e7420746f6b656e000000000000000000000000000000602082015250565b7f4552433732313a20617070726f76656420717565727920666f72206e6f6e657860008201527f697374656e7420746f6b656e0000000000000000000000000000000000000000602082015250565b7f4552433732314d657461646174613a2055524920717565727920666f72206e6f60008201527f6e6578697374656e7420746f6b656e0000000000000000000000000000000000602082015250565b7f4552433732313a20617070726f76616c20746f2063757272656e74206f776e6560008201527f7200000000000000000000000000000000000000000000000000000000000000602082015250565b7f4552433732313a207472616e736665722063616c6c6572206973206e6f74206f60008201527f776e6572206e6f7220617070726f766564000000000000000000000000000000602082015250565b612d2e8161261e565b8114612d3957600080fd5b50565b612d4581612630565b8114612d5057600080fd5b50565b612d5c8161263c565b8114612d6757600080fd5b50565b612d7381612688565b8114612d7e57600080fd5b5056fea26469706673582212200a834fa1c3c4aae504a602d9f37892c8c47142332a51db771dd37dd2f53ad44964736f6c63430008010033",
  "linkReferences": {},
  "deployedLinkReferences": {}
}